:020000040000FA
:1000000060204A20A4010508A000A500FF302506B5
:1000100003191628302009180228A50AFF302506E2
:10002000031916282508A00030200B282508A00059
:1000300030200918022824088A150A1200208A1183
:100040000A12860024088A150A1241208A110A120F
:10005000870065203E30240603190228A40A1928C7
:10006000A301A201A10164302002031C3A28A000D0
:10007000A30A33280A302002031C4128A000A20A48
:100080003A282008A100220E2106860023088700B6
:100090006520080083160313860186018701880105
:1000A000FF3085000130890083160317880189011C
:1000B00083120313860185018701880189010800E5
:1000C00083160313E1308F0008000A30A6007F304A
:1000D000A700FF30A800A80B6B28A70B6928A60B68
:0400E0006728080085
:1010000082078134C334E734FF347E343C341834EF
:101010003C347E34FF34E734C334013403340734C2
:101020000E341C3438347034E034C0348034C0346E
:10103000E034703438341C340E3407340334013453
:10104000033407340E341C3438347034E034C03484
:101050008034FF347E343C3418343C347E34FF34E6
:10106000AA3455342A3415340A3405340234013490
:1010700038341C340E340734033401340334073459
:101080000E3482078134C334E734FF347E343C3479
:1010900018343C347E34FF34E734C3340134033431
:1010A00007340E341C3438347034E034C0348034A7
:1010B000C034E034703438341C340E340734033414
:1010C0000134033407340E341C3438347034E034C3
:1010D000C0348034FF347E343C3418343C347E34A5
:1010E000FF34AA3455342A3415340A340534023412
:1010F000013438341C340E340734033401340334DF
:0411000007340E346E
:04110400003400347F
:02400E00E423A9
:02401000FF3F70
:00000001FF
